{
	"contracts/FundMe.sol": {
		"PriceConverter": {
			"abi": [
				{
					"inputs": [
						{
							"internalType": "uint256",
							"name": "ethAmount",
							"type": "uint256"
						}
					],
					"name": "GetConversionRate",
					"outputs": [
						{
							"internalType": "uint256",
							"name": "",
							"type": "uint256"
						}
					],
					"stateMutability": "view",
					"type": "function"
				},
				{
					"inputs": [],
					"name": "GetPrice",
					"outputs": [
						{
							"internalType": "uint256",
							"name": "",
							"type": "uint256"
						}
					],
					"stateMutability": "view",
					"type": "function"
				}
			],
			"devdoc": {
				"kind": "dev",
				"methods": {},
				"version": 1
			},
			"evm": {
				"assembly": "    /* \"contracts/FundMe.sol\":294:1059  library PriceConverter {... */\n  dataSize(sub_0)\n  dataOffset(sub_0)\n  0x0b\n  dup3\n  dup3\n  dup3\n  codecopy\n  dup1\n  mload\n  0x00\n  byte\n  0x73\n  eq\n  tag_1\n  jumpi\n  mstore(0x00, 0x4e487b7100000000000000000000000000000000000000000000000000000000)\n  mstore(0x04, 0x00)\n  revert(0x00, 0x24)\ntag_1:\n  mstore(0x00, address)\n  0x73\n  dup2\n  mstore8\n  dup3\n  dup2\n  return\nstop\n\nsub_0: assembly {\n        /* \"contracts/FundMe.sol\":294:1059  library PriceConverter {... */\n      eq(address, deployTimeAddress())\n      mstore(0x40, 0x80)\n      jumpi(tag_1, lt(calldatasize, 0x04))\n      shr(0xe0, calldataload(0x00))\n      dup1\n      0x6d90164e\n      eq\n      tag_2\n      jumpi\n      dup1\n      0x793b233b\n      eq\n      tag_3\n      jumpi\n    tag_1:\n      0x00\n      dup1\n      revert\n        /* \"contracts/FundMe.sol\":599:828  function GetPrice() public view returns(uint256) {... */\n    tag_2:\n      tag_4\n      tag_5\n      jump\t// in\n    tag_4:\n      mload(0x40)\n      tag_6\n      swap2\n      swap1\n      tag_7\n      jump\t// in\n    tag_6:\n      mload(0x40)\n      dup1\n      swap2\n      sub\n      swap1\n      return\n        /* \"contracts/FundMe.sol\":836:1056  function GetConversionRate(uint256 ethAmount) public view returns(uint256) {... */\n    tag_3:\n      tag_8\n      0x04\n      dup1\n      calldatasize\n      sub\n      dup2\n      add\n      swap1\n      tag_9\n      swap2\n      swap1\n      tag_10\n      jump\t// in\n    tag_9:\n      tag_11\n      jump\t// in\n    tag_8:\n      mload(0x40)\n      tag_12\n      swap2\n      swap1\n      tag_7\n      jump\t// in\n    tag_12:\n      mload(0x40)\n      dup1\n      swap2\n      sub\n      swap1\n      return\n        /* \"contracts/FundMe.sol\":599:828  function GetPrice() public view returns(uint256) {... */\n    tag_5:\n        /* \"contracts/FundMe.sol\":639:646  uint256 */\n      0x00\n        /* \"contracts/FundMe.sol\":659:690  AggregatorV3Interface priceFeed */\n      dup1\n        /* \"contracts/FundMe.sol\":424:466  0xfEefF7c3fB57d18C5C6Cdd71e45D2D0b4F9377bF */\n      0xfeeff7c3fb57d18c5c6cdd71e45d2d0b4f9377bf\n        /* \"contracts/FundMe.sol\":659:720  AggregatorV3Interface priceFeed = AggregatorV3Interface(addr) */\n      swap1\n      pop\n        /* \"contracts/FundMe.sol\":733:746  int256 answer */\n      0x00\n        /* \"contracts/FundMe.sol\":753:762  priceFeed */\n      dup2\n        /* \"contracts/FundMe.sol\":753:778  priceFeed.latestRoundData */\n      0xffffffffffffffffffffffffffffffffffffffff\n      and\n      0xfeaf968c\n        /* \"contracts/FundMe.sol\":753:780  priceFeed.latestRoundData() */\n      mload(0x40)\n      dup2\n      0xffffffff\n      and\n      0xe0\n      shl\n      dup2\n      mstore\n      0x04\n      add\n      0xa0\n      mload(0x40)\n      dup1\n      dup4\n      sub\n      dup2\n      dup7\n      gas\n      staticcall\n      iszero\n      dup1\n      iszero\n      tag_15\n      jumpi\n      returndatasize\n      0x00\n      dup1\n      returndatacopy\n      revert(0x00, returndatasize)\n    tag_15:\n      pop\n      pop\n      pop\n      pop\n      mload(0x40)\n      returndatasize\n      not(0x1f)\n      0x1f\n      dup3\n      add\n      and\n      dup3\n      add\n      dup1\n      0x40\n      mstore\n      pop\n      dup2\n      add\n      swap1\n      tag_16\n      swap2\n      swap1\n      tag_17\n      jump\t// in\n    tag_16:\n        /* \"contracts/FundMe.sol\":731:780  (,int256 answer,,,) = priceFeed.latestRoundData() */\n      pop\n      pop\n      pop\n      swap2\n      pop\n      pop\n        /* \"contracts/FundMe.sol\":815:819  1e10 */\n      0x02540be400\n        /* \"contracts/FundMe.sol\":806:812  answer */\n      dup2\n        /* \"contracts/FundMe.sol\":806:819  answer * 1e10 */\n      tag_18\n      swap2\n      swap1\n      tag_19\n      jump\t// in\n    tag_18:\n        /* \"contracts/FundMe.sol\":791:820  return uint256(answer * 1e10) */\n      swap3\n      pop\n      pop\n      pop\n        /* \"contracts/FundMe.sol\":599:828  function GetPrice() public view returns(uint256) {... */\n      swap1\n      jump\t// out\n        /* \"contracts/FundMe.sol\":836:1056  function GetConversionRate(uint256 ethAmount) public view returns(uint256) {... */\n    tag_11:\n        /* \"contracts/FundMe.sol\":902:909  uint256 */\n      0x00\n        /* \"contracts/FundMe.sol\":922:938  uint256 ethPrice */\n      dup1\n        /* \"contracts/FundMe.sol\":941:951  GetPrice() */\n      tag_21\n        /* \"contracts/FundMe.sol\":941:949  GetPrice */\n      tag_5\n        /* \"contracts/FundMe.sol\":941:951  GetPrice() */\n      jump\t// in\n    tag_21:\n        /* \"contracts/FundMe.sol\":922:951  uint256 ethPrice = GetPrice() */\n      swap1\n      pop\n        /* \"contracts/FundMe.sol\":962:984  uint256 ethAmountInUsd */\n      0x00\n        /* \"contracts/FundMe.sol\":1012:1016  1e18 */\n      0x0de0b6b3a7640000\n        /* \"contracts/FundMe.sol\":999:1008  ethAmount */\n      dup5\n        /* \"contracts/FundMe.sol\":988:996  ethPrice */\n      dup4\n        /* \"contracts/FundMe.sol\":988:1008  ethPrice * ethAmount */\n      tag_22\n      swap2\n      swap1\n      tag_23\n      jump\t// in\n    tag_22:\n        /* \"contracts/FundMe.sol\":987:1016  (ethPrice * ethAmount) / 1e18 */\n      tag_24\n      swap2\n      swap1\n      tag_25\n      jump\t// in\n    tag_24:\n        /* \"contracts/FundMe.sol\":962:1016  uint256 ethAmountInUsd = (ethPrice * ethAmount) / 1e18 */\n      swap1\n      pop\n        /* \"contracts/FundMe.sol\":1034:1048  ethAmountInUsd */\n      dup1\n        /* \"contracts/FundMe.sol\":1027:1048  return ethAmountInUsd */\n      swap3\n      pop\n      pop\n      pop\n        /* \"contracts/FundMe.sol\":836:1056  function GetConversionRate(uint256 ethAmount) public view returns(uint256) {... */\n      swap2\n      swap1\n      pop\n      jump\t// out\n        /* \"#utility.yul\":7:84   */\n    tag_26:\n        /* \"#utility.yul\":44:51   */\n      0x00\n        /* \"#utility.yul\":73:78   */\n      dup2\n        /* \"#utility.yul\":62:78   */\n      swap1\n      pop\n        /* \"#utility.yul\":7:84   */\n      swap2\n      swap1\n      pop\n      jump\t// out\n        /* \"#utility.yul\":90:216   */\n    tag_27:\n        /* \"#utility.yul\":185:209   */\n      tag_45\n        /* \"#utility.yul\":203:208   */\n      dup2\n        /* \"#utility.yul\":185:209   */\n      tag_26\n      jump\t// in\n    tag_45:\n        /* \"#utility.yul\":180:183   */\n      dup3\n        /* \"#utility.yul\":173:210   */\n      mstore\n        /* \"#utility.yul\":90:216   */\n      pop\n      pop\n      jump\t// out\n        /* \"#utility.yul\":222:460   */\n    tag_7:\n        /* \"#utility.yul\":323:327   */\n      0x00\n        /* \"#utility.yul\":361:363   */\n      0x20\n        /* \"#utility.yul\":350:359   */\n      dup3\n        /* \"#utility.yul\":346:364   */\n      add\n        /* \"#utility.yul\":338:364   */\n      swap1\n      pop\n        /* \"#utility.yul\":374:453   */\n      tag_47\n        /* \"#utility.yul\":450:451   */\n      0x00\n        /* \"#utility.yul\":439:448   */\n      dup4\n        /* \"#utility.yul\":435:452   */\n      add\n        /* \"#utility.yul\":426:432   */\n      dup5\n        /* \"#utility.yul\":374:453   */\n      tag_27\n      jump\t// in\n    tag_47:\n        /* \"#utility.yul\":222:460   */\n      swap3\n      swap2\n      pop\n      pop\n      jump\t// out\n        /* \"#utility.yul\":547:664   */\n    tag_29:\n        /* \"#utility.yul\":656:657   */\n      0x00\n        /* \"#utility.yul\":653:654   */\n      dup1\n        /* \"#utility.yul\":646:658   */\n      revert\n        /* \"#utility.yul\":793:915   */\n    tag_31:\n        /* \"#utility.yul\":866:890   */\n      tag_52\n        /* \"#utility.yul\":884:889   */\n      dup2\n        /* \"#utility.yul\":866:890   */\n      tag_26\n      jump\t// in\n    tag_52:\n        /* \"#utility.yul\":859:864   */\n      dup2\n        /* \"#utility.yul\":856:891   */\n      eq\n        /* \"#utility.yul\":846:909   */\n      tag_53\n      jumpi\n        /* \"#utility.yul\":905:906   */\n      0x00\n        /* \"#utility.yul\":902:903   */\n      dup1\n        /* \"#utility.yul\":895:907   */\n      revert\n        /* \"#utility.yul\":846:909   */\n    tag_53:\n        /* \"#utility.yul\":793:915   */\n      pop\n      jump\t// out\n        /* \"#utility.yul\":921:1060   */\n    tag_32:\n        /* \"#utility.yul\":967:972   */\n      0x00\n        /* \"#utility.yul\":1005:1011   */\n      dup2\n        /* \"#utility.yul\":992:1012   */\n      calldataload\n        /* \"#utility.yul\":983:1012   */\n      swap1\n      pop\n        /* \"#utility.yul\":1021:1054   */\n      tag_55\n        /* \"#utility.yul\":1048:1053   */\n      dup2\n        /* \"#utility.yul\":1021:1054   */\n      tag_31\n      jump\t// in\n    tag_55:\n        /* \"#utility.yul\":921:1060   */\n      swap3\n      swap2\n      pop\n      pop\n      jump\t// out\n        /* \"#utility.yul\":1066:1395   */\n    tag_10:\n        /* \"#utility.yul\":1125:1131   */\n      0x00\n        /* \"#utility.yul\":1174:1176   */\n      0x20\n        /* \"#utility.yul\":1162:1171   */\n      dup3\n        /* \"#utility.yul\":1153:1160   */\n      dup5\n        /* \"#utility.yul\":1149:1172   */\n      sub\n        /* \"#utility.yul\":1145:1177   */\n      slt\n        /* \"#utility.yul\":1142:1261   */\n      iszero\n      tag_57\n      jumpi\n        /* \"#utility.yul\":1180:1259   */\n      tag_58\n      tag_29\n      jump\t// in\n    tag_58:\n        /* \"#utility.yul\":1142:1261   */\n    tag_57:\n        /* \"#utility.yul\":1300:1301   */\n      0x00\n        /* \"#utility.yul\":1325:1378   */\n      tag_59\n        /* \"#utility.yul\":1370:1377   */\n      dup5\n        /* \"#utility.yul\":1361:1367   */\n      dup3\n        /* \"#utility.yul\":1350:1359   */\n      dup6\n        /* \"#utility.yul\":1346:1368   */\n      add\n        /* \"#utility.yul\":1325:1378   */\n      tag_32\n      jump\t// in\n    tag_59:\n        /* \"#utility.yul\":1315:1378   */\n      swap2\n      pop\n        /* \"#utility.yul\":1271:1388   */\n      pop\n        /* \"#utility.yul\":1066:1395   */\n      swap3\n      swap2\n      pop\n      pop\n      jump\t// out\n        /* \"#utility.yul\":1401:1506   */\n    tag_33:\n        /* \"#utility.yul\":1437:1444   */\n      0x00\n        /* \"#utility.yul\":1477:1499   */\n      0xffffffffffffffffffff\n        /* \"#utility.yul\":1470:1475   */\n      dup3\n        /* \"#utility.yul\":1466:1500   */\n      and\n        /* \"#utility.yul\":1455:1500   */\n      swap1\n      pop\n        /* \"#utility.yul\":1401:1506   */\n      swap2\n      swap1\n      pop\n      jump\t// out\n        /* \"#utility.yul\":1512:1632   */\n    tag_34:\n        /* \"#utility.yul\":1584:1607   */\n      tag_62\n        /* \"#utility.yul\":1601:1606   */\n      dup2\n        /* \"#utility.yul\":1584:1607   */\n      tag_33\n      jump\t// in\n    tag_62:\n        /* \"#utility.yul\":1577:1582   */\n      dup2\n        /* \"#utility.yul\":1574:1608   */\n      eq\n        /* \"#utility.yul\":1564:1626   */\n      tag_63\n      jumpi\n        /* \"#utility.yul\":1622:1623   */\n      0x00\n        /* \"#utility.yul\":1619:1620   */\n      dup1\n        /* \"#utility.yul\":1612:1624   */\n      revert\n        /* \"#utility.yul\":1564:1626   */\n    tag_63:\n        /* \"#utility.yul\":1512:1632   */\n      pop\n      jump\t// out\n        /* \"#utility.yul\":1638:1779   */\n    tag_35:\n        /* \"#utility.yul\":1694:1699   */\n      0x00\n        /* \"#utility.yul\":1725:1731   */\n      dup2\n        /* \"#utility.yul\":1719:1732   */\n      mload\n        /* \"#utility.yul\":1710:1732   */\n      swap1\n      pop\n        /* \"#utility.yul\":1741:1773   */\n      tag_65\n        /* \"#utility.yul\":1767:1772   */\n      dup2\n        /* \"#utility.yul\":1741:1773   */\n      tag_34\n      jump\t// in\n    tag_65:\n        /* \"#utility.yul\":1638:1779   */\n      swap3\n      swap2\n      pop\n      pop\n      jump\t// out\n        /* \"#utility.yul\":1785:1861   */\n    tag_36:\n        /* \"#utility.yul\":1821:1828   */\n      0x00\n        /* \"#utility.yul\":1850:1855   */\n      dup2\n        /* \"#utility.yul\":1839:1855   */\n      swap1\n      pop\n        /* \"#utility.yul\":1785:1861   */\n      swap2\n      swap1\n      pop\n      jump\t// out\n        /* \"#utility.yul\":1867:1987   */\n    tag_37:\n        /* \"#utility.yul\":1939:1962   */\n      tag_68\n        /* \"#utility.yul\":1956:1961   */\n      dup2\n        /* \"#utility.yul\":1939:1962   */\n      tag_36\n      jump\t// in\n    tag_68:\n        /* \"#utility.yul\":1932:1937   */\n      dup2\n        /* \"#utility.yul\":1929:1963   */\n      eq\n        /* \"#utility.yul\":1919:1981   */\n      tag_69\n      jumpi\n        /* \"#utility.yul\":1977:1978   */\n      0x00\n        /* \"#utility.yul\":1974:1975   */\n      dup1\n        /* \"#utility.yul\":1967:1979   */\n      revert\n        /* \"#utility.yul\":1919:1981   */\n    tag_69:\n        /* \"#utility.yul\":1867:1987   */\n      pop\n      jump\t// out\n        /* \"#utility.yul\":1993:2134   */\n    tag_38:\n        /* \"#utility.yul\":2049:2054   */\n      0x00\n        /* \"#utility.yul\":2080:2086   */\n      dup2\n        /* \"#utility.yul\":2074:2087   */\n      mload\n        /* \"#utility.yul\":2065:2087   */\n      swap1\n      pop\n        /* \"#utility.yul\":2096:2128   */\n      tag_71\n        /* \"#utility.yul\":2122:2127   */\n      dup2\n        /* \"#utility.yul\":2096:2128   */\n      tag_37\n      jump\t// in\n    tag_71:\n        /* \"#utility.yul\":1993:2134   */\n      swap3\n      swap2\n      pop\n      pop\n      jump\t// out\n        /* \"#utility.yul\":2140:2283   */\n    tag_39:\n        /* \"#utility.yul\":2197:2202   */\n      0x00\n        /* \"#utility.yul\":2228:2234   */\n      dup2\n        /* \"#utility.yul\":2222:2235   */\n      mload\n        /* \"#utility.yul\":2213:2235   */\n      swap1\n      pop\n        /* \"#utility.yul\":2244:2277   */\n      tag_73\n        /* \"#utility.yul\":2271:2276   */\n      dup2\n        /* \"#utility.yul\":2244:2277   */\n      tag_31\n      jump\t// in\n    tag_73:\n        /* \"#utility.yul\":2140:2283   */\n      swap3\n      swap2\n      pop\n      pop\n      jump\t// out\n        /* \"#utility.yul\":2289:3260   */\n    tag_17:\n        /* \"#utility.yul\":2392:2398   */\n      0x00\n        /* \"#utility.yul\":2400:2406   */\n      dup1\n        /* \"#utility.yul\":2408:2414   */\n      0x00\n        /* \"#utility.yul\":2416:2422   */\n      dup1\n        /* \"#utility.yul\":2424:2430   */\n      0x00\n        /* \"#utility.yul\":2473:2476   */\n      0xa0\n        /* \"#utility.yul\":2461:2470   */\n      dup7\n        /* \"#utility.yul\":2452:2459   */\n      dup9\n        /* \"#utility.yul\":2448:2471   */\n      sub\n        /* \"#utility.yul\":2444:2477   */\n      slt\n        /* \"#utility.yul\":2441:2561   */\n      iszero\n      tag_75\n      jumpi\n        /* \"#utility.yul\":2480:2559   */\n      tag_76\n      tag_29\n      jump\t// in\n    tag_76:\n        /* \"#utility.yul\":2441:2561   */\n    tag_75:\n        /* \"#utility.yul\":2600:2601   */\n      0x00\n        /* \"#utility.yul\":2625:2688   */\n      tag_77\n        /* \"#utility.yul\":2680:2687   */\n      dup9\n        /* \"#utility.yul\":2671:2677   */\n      dup3\n        /* \"#utility.yul\":2660:2669   */\n      dup10\n        /* \"#utility.yul\":2656:2678   */\n      add\n        /* \"#utility.yul\":2625:2688   */\n      tag_35\n      jump\t// in\n    tag_77:\n        /* \"#utility.yul\":2615:2688   */\n      swap6\n      pop\n        /* \"#utility.yul\":2571:2698   */\n      pop\n        /* \"#utility.yul\":2737:2739   */\n      0x20\n        /* \"#utility.yul\":2763:2826   */\n      tag_78\n        /* \"#utility.yul\":2818:2825   */\n      dup9\n        /* \"#utility.yul\":2809:2815   */\n      dup3\n        /* \"#utility.yul\":2798:2807   */\n      dup10\n        /* \"#utility.yul\":2794:2816   */\n      add\n        /* \"#utility.yul\":2763:2826   */\n      tag_38\n      jump\t// in\n    tag_78:\n        /* \"#utility.yul\":2753:2826   */\n      swap5\n      pop\n        /* \"#utility.yul\":2708:2836   */\n      pop\n        /* \"#utility.yul\":2875:2877   */\n      0x40\n        /* \"#utility.yul\":2901:2965   */\n      tag_79\n        /* \"#utility.yul\":2957:2964   */\n      dup9\n        /* \"#utility.yul\":2948:2954   */\n      dup3\n        /* \"#utility.yul\":2937:2946   */\n      dup10\n        /* \"#utility.yul\":2933:2955   */\n      add\n        /* \"#utility.yul\":2901:2965   */\n      tag_39\n      jump\t// in\n    tag_79:\n        /* \"#utility.yul\":2891:2965   */\n      swap4\n      pop\n        /* \"#utility.yul\":2846:2975   */\n      pop\n        /* \"#utility.yul\":3014:3016   */\n      0x60\n        /* \"#utility.yul\":3040:3104   */\n      tag_80\n        /* \"#utility.yul\":3096:3103   */\n      dup9\n        /* \"#utility.yul\":3087:3093   */\n      dup3\n        /* \"#utility.yul\":3076:3085   */\n      dup10\n        /* \"#utility.yul\":3072:3094   */\n      add\n        /* \"#utility.yul\":3040:3104   */\n      tag_39\n      jump\t// in\n    tag_80:\n        /* \"#utility.yul\":3030:3104   */\n      swap3\n      pop\n        /* \"#utility.yul\":2985:3114   */\n      pop\n        /* \"#utility.yul\":3153:3156   */\n      0x80\n        /* \"#utility.yul\":3180:3243   */\n      tag_81\n        /* \"#utility.yul\":3235:3242   */\n      dup9\n        /* \"#utility.yul\":3226:3232   */\n      dup3\n        /* \"#utility.yul\":3215:3224   */\n      dup10\n        /* \"#utility.yul\":3211:3233   */\n      add\n        /* \"#utility.yul\":3180:3243   */\n      tag_35\n      jump\t// in\n    tag_81:\n        /* \"#utility.yul\":3170:3243   */\n      swap2\n      pop\n        /* \"#utility.yul\":3124:3253   */\n      pop\n        /* \"#utility.yul\":2289:3260   */\n      swap3\n      swap6\n      pop\n      swap3\n      swap6\n      swap1\n      swap4\n      pop\n      jump\t// out\n        /* \"#utility.yul\":3266:3446   */\n    tag_40:\n        /* \"#utility.yul\":3314:3391   */\n      0x4e487b7100000000000000000000000000000000000000000000000000000000\n        /* \"#utility.yul\":3311:3312   */\n      0x00\n        /* \"#utility.yul\":3304:3392   */\n      mstore\n        /* \"#utility.yul\":3411:3415   */\n      0x11\n        /* \"#utility.yul\":3408:3409   */\n      0x04\n        /* \"#utility.yul\":3401:3416   */\n      mstore\n        /* \"#utility.yul\":3435:3439   */\n      0x24\n        /* \"#utility.yul\":3432:3433   */\n      0x00\n        /* \"#utility.yul\":3425:3440   */\n      revert\n        /* \"#utility.yul\":3452:4008   */\n    tag_19:\n        /* \"#utility.yul\":3491:3498   */\n      0x00\n        /* \"#utility.yul\":3514:3533   */\n      tag_84\n        /* \"#utility.yul\":3531:3532   */\n      dup3\n        /* \"#utility.yul\":3514:3533   */\n      tag_36\n      jump\t// in\n    tag_84:\n        /* \"#utility.yul\":3509:3533   */\n      swap2\n      pop\n        /* \"#utility.yul\":3547:3566   */\n      tag_85\n        /* \"#utility.yul\":3564:3565   */\n      dup4\n        /* \"#utility.yul\":3547:3566   */\n      tag_36\n      jump\t// in\n    tag_85:\n        /* \"#utility.yul\":3542:3566   */\n      swap3\n      pop\n        /* \"#utility.yul\":3601:3602   */\n      dup3\n        /* \"#utility.yul\":3598:3599   */\n      dup3\n        /* \"#utility.yul\":3594:3603   */\n      mul\n        /* \"#utility.yul\":3623:3652   */\n      tag_86\n        /* \"#utility.yul\":3640:3651   */\n      dup2\n        /* \"#utility.yul\":3623:3652   */\n      tag_36\n      jump\t// in\n    tag_86:\n        /* \"#utility.yul\":3612:3652   */\n      swap2\n      pop\n        /* \"#utility.yul\":3710:3776   */\n      0x8000000000000000000000000000000000000000000000000000000000000000\n        /* \"#utility.yul\":3707:3708   */\n      dup5\n        /* \"#utility.yul\":3704:3777   */\n      eq\n        /* \"#utility.yul\":3700:3701   */\n      0x00\n        /* \"#utility.yul\":3697:3698   */\n      dup5\n        /* \"#utility.yul\":3693:3702   */\n      slt\n        /* \"#utility.yul\":3689:3778   */\n      and\n        /* \"#utility.yul\":3686:3801   */\n      iszero\n      tag_87\n      jumpi\n        /* \"#utility.yul\":3781:3799   */\n      tag_88\n      tag_40\n      jump\t// in\n    tag_88:\n        /* \"#utility.yul\":3686:3801   */\n    tag_87:\n        /* \"#utility.yul\":3951:3952   */\n      dup3\n        /* \"#utility.yul\":3942:3949   */\n      dup3\n        /* \"#utility.yul\":3937:3953   */\n      sdiv\n        /* \"#utility.yul\":3934:3935   */\n      dup5\n        /* \"#utility.yul\":3931:3954   */\n      eq\n        /* \"#utility.yul\":3911:3912   */\n      dup4\n        /* \"#utility.yul\":3904:3913   */\n      iszero\n        /* \"#utility.yul\":3884:3968   */\n      or\n        /* \"#utility.yul\":3861:4001   */\n      tag_89\n      jumpi\n        /* \"#utility.yul\":3981:3999   */\n      tag_90\n      tag_40\n      jump\t// in\n    tag_90:\n        /* \"#utility.yul\":3861:4001   */\n    tag_89:\n        /* \"#utility.yul\":3499:4008   */\n      pop\n        /* \"#utility.yul\":3452:4008   */\n      swap3\n      swap2\n      pop\n      pop\n      jump\t// out\n        /* \"#utility.yul\":4014:4424   */\n    tag_23:\n        /* \"#utility.yul\":4054:4061   */\n      0x00\n        /* \"#utility.yul\":4077:4097   */\n      tag_92\n        /* \"#utility.yul\":4095:4096   */\n      dup3\n        /* \"#utility.yul\":4077:4097   */\n      tag_26\n      jump\t// in\n    tag_92:\n        /* \"#utility.yul\":4072:4097   */\n      swap2\n      pop\n        /* \"#utility.yul\":4111:4131   */\n      tag_93\n        /* \"#utility.yul\":4129:4130   */\n      dup4\n        /* \"#utility.yul\":4111:4131   */\n      tag_26\n      jump\t// in\n    tag_93:\n        /* \"#utility.yul\":4106:4131   */\n      swap3\n      pop\n        /* \"#utility.yul\":4166:4167   */\n      dup3\n        /* \"#utility.yul\":4163:4164   */\n      dup3\n        /* \"#utility.yul\":4159:4168   */\n      mul\n        /* \"#utility.yul\":4188:4218   */\n      tag_94\n        /* \"#utility.yul\":4206:4217   */\n      dup2\n        /* \"#utility.yul\":4188:4218   */\n      tag_26\n      jump\t// in\n    tag_94:\n        /* \"#utility.yul\":4177:4218   */\n      swap2\n      pop\n        /* \"#utility.yul\":4367:4368   */\n      dup3\n        /* \"#utility.yul\":4358:4365   */\n      dup3\n        /* \"#utility.yul\":4354:4369   */\n      div\n        /* \"#utility.yul\":4351:4352   */\n      dup5\n        /* \"#utility.yul\":4348:4370   */\n      eq\n        /* \"#utility.yul\":4328:4329   */\n      dup4\n        /* \"#utility.yul\":4321:4330   */\n      iszero\n        /* \"#utility.yul\":4301:4384   */\n      or\n        /* \"#utility.yul\":4278:4417   */\n      tag_95\n      jumpi\n        /* \"#utility.yul\":4397:4415   */\n      tag_96\n      tag_40\n      jump\t// in\n    tag_96:\n        /* \"#utility.yul\":4278:4417   */\n    tag_95:\n        /* \"#utility.yul\":4062:4424   */\n      pop\n        /* \"#utility.yul\":4014:4424   */\n      swap3\n      swap2\n      pop\n      pop\n      jump\t// out\n        /* \"#utility.yul\":4430:4610   */\n    tag_41:\n        /* \"#utility.yul\":4478:4555   */\n      0x4e487b7100000000000000000000000000000000000000000000000000000000\n        /* \"#utility.yul\":4475:4476   */\n      0x00\n        /* \"#utility.yul\":4468:4556   */\n      mstore\n        /* \"#utility.yul\":4575:4579   */\n      0x12\n        /* \"#utility.yul\":4572:4573   */\n      0x04\n        /* \"#utility.yul\":4565:4580   */\n      mstore\n        /* \"#utility.yul\":4599:4603   */\n      0x24\n        /* \"#utility.yul\":4596:4597   */\n      0x00\n        /* \"#utility.yul\":4589:4604   */\n      revert\n        /* \"#utility.yul\":4616:4801   */\n    tag_25:\n        /* \"#utility.yul\":4656:4657   */\n      0x00\n        /* \"#utility.yul\":4673:4693   */\n      tag_99\n        /* \"#utility.yul\":4691:4692   */\n      dup3\n        /* \"#utility.yul\":4673:4693   */\n      tag_26\n      jump\t// in\n    tag_99:\n        /* \"#utility.yul\":4668:4693   */\n      swap2\n      pop\n        /* \"#utility.yul\":4707:4727   */\n      tag_100\n        /* \"#utility.yul\":4725:4726   */\n      dup4\n        /* \"#utility.yul\":4707:4727   */\n      tag_26\n      jump\t// in\n    tag_100:\n        /* \"#utility.yul\":4702:4727   */\n      swap3\n      pop\n        /* \"#utility.yul\":4746:4747   */\n      dup3\n        /* \"#utility.yul\":4736:4771   */\n      tag_101\n      jumpi\n        /* \"#utility.yul\":4751:4769   */\n      tag_102\n      tag_41\n      jump\t// in\n    tag_102:\n        /* \"#utility.yul\":4736:4771   */\n    tag_101:\n        /* \"#utility.yul\":4793:4794   */\n      dup3\n        /* \"#utility.yul\":4790:4791   */\n      dup3\n        /* \"#utility.yul\":4786:4795   */\n      div\n        /* \"#utility.yul\":4781:4795   */\n      swap1\n      pop\n        /* \"#utility.yul\":4616:4801   */\n      swap3\n      swap2\n      pop\n      pop\n      jump\t// out\n\n    auxdata: 0xa2646970667358221220602111282791012c28e09ee2f20bfa93d4e1780b7c3aa3ad02288c4a6c8bfc9264736f6c63430008180033\n}\n",
				"bytecode": {
					"linkReferences": {},
					"object": "61046c61004e600b8282823980515f1a607314610042577f4e487b71000000000000000000000000000000000000000000000000000000005f525f60045260245ffd5b305f52607381538281f3fe730000000000000000000000000000000000000000301460806040526004361061003f575f3560e01c80636d90164e14610043578063793b233b14610061575b5f80fd5b61004b610091565b6040516100589190610186565b60405180910390f35b61007b600480360381019061007691906101cd565b610136565b6040516100889190610186565b60405180910390f35b5f8073feeff7c3fb57d18c5c6cdd71e45d2d0b4f9377bf90505f8173ffffffffffffffffffffffffffffffffffffffff1663feaf968c6040518163ffffffff1660e01b815260040160a060405180830381865afa1580156100f4573d5f803e3d5ffd5b505050506040513d601f19601f82011682018060405250810190610118919061027e565b5050509150506402540be4008161012f9190610322565b9250505090565b5f80610140610091565b90505f670de0b6b3a764000084836101589190610398565b6101629190610406565b90508092505050919050565b5f819050919050565b6101808161016e565b82525050565b5f6020820190506101995f830184610177565b92915050565b5f80fd5b6101ac8161016e565b81146101b6575f80fd5b50565b5f813590506101c7816101a3565b92915050565b5f602082840312156101e2576101e161019f565b5b5f6101ef848285016101b9565b91505092915050565b5f69ffffffffffffffffffff82169050919050565b610216816101f8565b8114610220575f80fd5b50565b5f815190506102318161020d565b92915050565b5f819050919050565b61024981610237565b8114610253575f80fd5b50565b5f8151905061026481610240565b92915050565b5f81519050610278816101a3565b92915050565b5f805f805f60a086880312156102975761029661019f565b5b5f6102a488828901610223565b95505060206102b588828901610256565b94505060406102c68882890161026a565b93505060606102d78882890161026a565b92505060806102e888828901610223565b9150509295509295909350565b7f4e487b71000000000000000000000000000000000000000000000000000000005f52601160045260245ffd5b5f61032c82610237565b915061033783610237565b925082820261034581610237565b91507f800000000000000000000000000000000000000000000000000000000000000084145f8412161561037c5761037b6102f5565b5b8282058414831517610391576103906102f5565b5b5092915050565b5f6103a28261016e565b91506103ad8361016e565b92508282026103bb8161016e565b915082820484148315176103d2576103d16102f5565b5b5092915050565b7f4e487b71000000000000000000000000000000000000000000000000000000005f52601260045260245ffd5b5f6104108261016e565b915061041b8361016e565b92508261042b5761042a6103d9565b5b82820490509291505056fea2646970667358221220602111282791012c28e09ee2f20bfa93d4e1780b7c3aa3ad02288c4a6c8bfc9264736f6c63430008180033",
					"opcodes": "PUSH2 0x46C PUSH2 0x4E PUSH1 0xB DUP3 DUP3 DUP3 CODECOPY DUP1 MLOAD PUSH0 BYTE PUSH1 0x73 EQ PUSH2 0x42 JUMPI PUSH32 0x4E487B7100000000000000000000000000000000000000000000000000000000 PUSH0 MSTORE PUSH0 PUSH1 0x4 MSTORE PUSH1 0x24 PUSH0 REVERT JUMPDEST ADDRESS PUSH0 MSTORE PUSH1 0x73 DUP2 MSTORE8 DUP3 DUP2 RETURN INVALID PUSH20 0x0 ADDRESS EQ PUSH1 0x80 PUSH1 0x40 MSTORE PUSH1 0x4 CALLDATASIZE LT PUSH2 0x3F JUMPI PUSH0 CALLDATALOAD PUSH1 0xE0 SHR DUP1 PUSH4 0x6D90164E EQ PUSH2 0x43 JUMPI DUP1 PUSH4 0x793B233B EQ PUSH2 0x61 JUMPI JUMPDEST PUSH0 DUP1 REVERT JUMPDEST PUSH2 0x4B PUSH2 0x91 JUMP JUMPDEST PUSH1 0x40 MLOAD PUSH2 0x58 SWAP2 SWAP1 PUSH2 0x186 JUMP JUMPDEST PUSH1 0x40 MLOAD DUP1 SWAP2 SUB SWAP1 RETURN JUMPDEST PUSH2 0x7B PUSH1 0x4 DUP1 CALLDATASIZE SUB DUP2 ADD SWAP1 PUSH2 0x76 SWAP2 SWAP1 PUSH2 0x1CD JUMP JUMPDEST PUSH2 0x136 JUMP JUMPDEST PUSH1 0x40 MLOAD PUSH2 0x88 SWAP2 SWAP1 PUSH2 0x186 JUMP JUMPDEST PUSH1 0x40 MLOAD DUP1 SWAP2 SUB SWAP1 RETURN JUMPDEST PUSH0 DUP1 PUSH20 0xFEEFF7C3FB57D18C5C6CDD71E45D2D0B4F9377BF SWAP1 POP PUSH0 DUP2 PUSH20 0xFFFFFFFFFFFFFFFFFFFFFFFFFFFFFFFFFFFFFFFF AND PUSH4 0xFEAF968C PUSH1 0x40 MLOAD DUP2 PUSH4 0xFFFFFFFF AND PUSH1 0xE0 SHL DUP2 MSTORE PUSH1 0x4 ADD PUSH1 0xA0 PUSH1 0x40 MLOAD DUP1 DUP4 SUB DUP2 DUP7 GAS STATICCALL ISZERO DUP1 ISZERO PUSH2 0xF4 JUMPI RETURNDATASIZE PUSH0 DUP1 RETURNDATACOPY RETURNDATASIZE PUSH0 REVERT JUMPDEST POP POP POP POP PUSH1 0x40 MLOAD RETURNDATASIZE PUSH1 0x1F NOT PUSH1 0x1F DUP3 ADD AND DUP3 ADD DUP1 PUSH1 0x40 MSTORE POP DUP2 ADD SWAP1 PUSH2 0x118 SWAP2 SWAP1 PUSH2 0x27E JUMP JUMPDEST POP POP POP SWAP2 POP POP PUSH5 0x2540BE400 DUP2 PUSH2 0x12F SWAP2 SWAP1 PUSH2 0x322 JUMP JUMPDEST SWAP3 POP POP POP SWAP1 JUMP JUMPDEST PUSH0 DUP1 PUSH2 0x140 PUSH2 0x91 JUMP JUMPDEST SWAP1 POP PUSH0 PUSH8 0xDE0B6B3A7640000 DUP5 DUP4 PUSH2 0x158 SWAP2 SWAP1 PUSH2 0x398 JUMP JUMPDEST PUSH2 0x162 SWAP2 SWAP1 PUSH2 0x406 JUMP JUMPDEST SWAP1 POP DUP1 SWAP3 POP POP POP SWAP2 SWAP1 POP JUMP JUMPDEST PUSH0 DUP2 SWAP1 POP SWAP2 SWAP1 POP JUMP JUMPDEST PUSH2 0x180 DUP2 PUSH2 0x16E JUMP JUMPDEST DUP3 MSTORE POP POP JUMP JUMPDEST PUSH0 PUSH1 0x20 DUP3 ADD SWAP1 POP PUSH2 0x199 PUSH0 DUP4 ADD DUP5 PUSH2 0x177 JUMP JUMPDEST SWAP3 SWAP2 POP POP JUMP JUMPDEST PUSH0 DUP1 REVERT JUMPDEST PUSH2 0x1AC DUP2 PUSH2 0x16E JUMP JUMPDEST DUP2 EQ PUSH2 0x1B6 JUMPI PUSH0 DUP1 REVERT JUMPDEST POP JUMP JUMPDEST PUSH0 DUP2 CALLDATALOAD SWAP1 POP PUSH2 0x1C7 DUP2 PUSH2 0x1A3 JUMP JUMPDEST SWAP3 SWAP2 POP POP JUMP JUMPDEST PUSH0 PUSH1 0x20 DUP3 DUP5 SUB SLT ISZERO PUSH2 0x1E2 JUMPI PUSH2 0x1E1 PUSH2 0x19F JUMP JUMPDEST JUMPDEST PUSH0 PUSH2 0x1EF DUP5 DUP3 DUP6 ADD PUSH2 0x1B9 JUMP JUMPDEST SWAP2 POP POP SWAP3 SWAP2 POP POP JUMP JUMPDEST PUSH0 PUSH10 0xFFFFFFFFFFFFFFFFFFFF DUP3 AND SWAP1 POP SWAP2 SWAP1 POP JUMP JUMPDEST PUSH2 0x216 DUP2 PUSH2 0x1F8 JUMP JUMPDEST DUP2 EQ PUSH2 0x220 JUMPI PUSH0 DUP1 REVERT JUMPDEST POP JUMP JUMPDEST PUSH0 DUP2 MLOAD SWAP1 POP PUSH2 0x231 DUP2 PUSH2 0x20D JUMP JUMPDEST SWAP3 SWAP2 POP POP JUMP JUMPDEST PUSH0 DUP2 SWAP1 POP SWAP2 SWAP1 POP JUMP JUMPDEST PUSH2 0x249 DUP2 PUSH2 0x237 JUMP JUMPDEST DUP2 EQ PUSH2 0x253 JUMPI PUSH0 DUP1 REVERT JUMPDEST POP JUMP JUMPDEST PUSH0 DUP2 MLOAD SWAP1 POP PUSH2 0x264 DUP2 PUSH2 0x240 JUMP JUMPDEST SWAP3 SWAP2 POP POP JUMP JUMPDEST PUSH0 DUP2 MLOAD SWAP1 POP PUSH2 0x278 DUP2 PUSH2 0x1A3 JUMP JUMPDEST SWAP3 SWAP2 POP POP JUMP JUMPDEST PUSH0 DUP1 PUSH0 DUP1 PUSH0 PUSH1 0xA0 DUP7 DUP9 SUB SLT ISZERO PUSH2 0x297 JUMPI PUSH2 0x296 PUSH2 0x19F JUMP JUMPDEST JUMPDEST PUSH0 PUSH2 0x2A4 DUP9 DUP3 DUP10 ADD PUSH2 0x223 JUMP JUMPDEST SWAP6 POP POP PUSH1 0x20 PUSH2 0x2B5 DUP9 DUP3 DUP10 ADD PUSH2 0x256 JUMP JUMPDEST SWAP5 POP POP PUSH1 0x40 PUSH2 0x2C6 DUP9 DUP3 DUP10 ADD PUSH2 0x26A JUMP JUMPDEST SWAP4 POP POP PUSH1 0x60 PUSH2 0x2D7 DUP9 DUP3 DUP10 ADD PUSH2 0x26A JUMP JUMPDEST SWAP3 POP POP PUSH1 0x80 PUSH2 0x2E8 DUP9 DUP3 DUP10 ADD PUSH2 0x223 JUMP JUMPDEST SWAP2 POP POP SWAP3 SWAP6 POP SWAP3 SWAP6 SWAP1 SWAP4 POP JUMP JUMPDEST PUSH32 0x4E487B7100000000000000000000000000000000000000000000000000000000 PUSH0 MSTORE PUSH1 0x11 PUSH1 0x4 MSTORE PUSH1 0x24 PUSH0 REVERT JUMPDEST PUSH0 PUSH2 0x32C DUP3 PUSH2 0x237 JUMP JUMPDEST SWAP2 POP PUSH2 0x337 DUP4 PUSH2 0x237 JUMP JUMPDEST SWAP3 POP DUP3 DUP3 MUL PUSH2 0x345 DUP2 PUSH2 0x237 JUMP JUMPDEST SWAP2 POP PUSH32 0x8000000000000000000000000000000000000000000000000000000000000000 DUP5 EQ PUSH0 DUP5 SLT AND ISZERO PUSH2 0x37C JUMPI PUSH2 0x37B PUSH2 0x2F5 JUMP JUMPDEST JUMPDEST DUP3 DUP3 SDIV DUP5 EQ DUP4 ISZERO OR PUSH2 0x391 JUMPI PUSH2 0x390 PUSH2 0x2F5 JUMP JUMPDEST JUMPDEST POP SWAP3 SWAP2 POP POP JUMP JUMPDEST PUSH0 PUSH2 0x3A2 DUP3 PUSH2 0x16E JUMP JUMPDEST SWAP2 POP PUSH2 0x3AD DUP4 PUSH2 0x16E JUMP JUMPDEST SWAP3 POP DUP3 DUP3 MUL PUSH2 0x3BB DUP2 PUSH2 0x16E JUMP JUMPDEST SWAP2 POP DUP3 DUP3 DIV DUP5 EQ DUP4 ISZERO OR PUSH2 0x3D2 JUMPI PUSH2 0x3D1 PUSH2 0x2F5 JUMP JUMPDEST JUMPDEST POP SWAP3 SWAP2 POP POP JUMP JUMPDEST PUSH32 0x4E487B7100000000000000000000000000000000000000000000000000000000 PUSH0 MSTORE PUSH1 0x12 PUSH1 0x4 MSTORE PUSH1 0x24 PUSH0 REVERT JUMPDEST PUSH0 PUSH2 0x410 DUP3 PUSH2 0x16E JUMP JUMPDEST SWAP2 POP PUSH2 0x41B DUP4 PUSH2 0x16E JUMP JUMPDEST SWAP3 POP DUP3 PUSH2 0x42B JUMPI PUSH2 0x42A PUSH2 0x3D9 JUMP JUMPDEST JUMPDEST DUP3 DUP3 DIV SWAP1 POP SWAP3 SWAP2 POP POP JUMP INVALID LOG2 PUSH5 0x6970667358 0x22 SLT KECCAK256 PUSH1 0x21 GT 0x28 0x27 SWAP2 ADD 0x2C 0x28 0xE0 SWAP15 0xE2 CALLCODE SIGNEXTEND STATICCALL SWAP4 0xD4 0xE1 PUSH25 0xB7C3AA3AD02288C4A6C8BFC9264736F6C6343000818003300 "
				},
				"gasEstimates": {
					"creation": {
						"codeDepositCost": "226400",
						"executionCost": "292",
						"totalCost": "226692"
					},
					"external": {
						"GetConversionRate(uint256)": "infinite",
						"GetPrice()": "infinite"
					},
					"internal": {
						"GetVersion()": "infinite"
					}
				},
				"methodIdentifiers": {
					"GetConversionRate(uint256)": "793b233b",
					"GetPrice()": "6d90164e"
				}
			},
			"storageLayout": {
				"storage": [],
				"types": null
			},
			"userdoc": {
				"kind": "user",
				"methods": {},
				"version": 1
			}
		}
	}
}