{
	"data": {
		"bytecode": {
			"linkReferences": {},
			"object": "608060405234801561000f575f80fd5b5061095e8061001d5f395ff3fe608060405234801561000f575f80fd5b5060043610610055575f3560e01c806306c62c2c146100595780632e64cec1146100895780632ebce631146100a75780636057361d146100d85780636f760f41146100f4575b5f80fd5b610073600480360381019061006e91906103e0565b610110565b604051610080919061043f565b60405180910390f35b61009161013d565b60405161009e919061043f565b60405180910390f35b6100c160048036038101906100bc9190610482565b610145565b6040516100cf929190610527565b60405180910390f35b6100f260048036038101906100ed9190610482565b6101fa565b005b61010e60048036038101906101099190610555565b61020f565b005b6002818051602081018201805184825260208301602085012081835280955050505050505f915090505481565b5f8054905090565b60018181548110610154575f80fd5b905f5260205f2090600202015f91509050805f015490806001018054610179906105dc565b80601f01602080910402602001604051908101604052809291908181526020018280546101a5906105dc565b80156101f05780601f106101c7576101008083540402835291602001916101f0565b820191905f5260205f20905b8154815290600101906020018083116101d357829003601f168201915b5050505050905082565b6005816102079190610639565b5f8190555050565b6001604051806040016040528083815260200184815250908060018154018082558091505060019003905f5260205f2090600202015f909190919091505f820151815f015560208201518160010190816102699190610809565b5050508060028360405161027d9190610912565b9081526020016040518091039020819055505050565b5f604051905090565b5f80fd5b5f80fd5b5f80fd5b5f80fd5b5f601f19601f8301169050919050565b7f4e487b71000000000000000000000000000000000000000000000000000000005f52604160045260245ffd5b6102f2826102ac565b810181811067ffffffffffffffff82111715610311576103106102bc565b5b80604052505050565b5f610323610293565b905061032f82826102e9565b919050565b5f67ffffffffffffffff82111561034e5761034d6102bc565b5b610357826102ac565b9050602081019050919050565b828183375f83830152505050565b5f61038461037f84610334565b61031a565b9050828152602081018484840111156103a05761039f6102a8565b5b6103ab848285610364565b509392505050565b5f82601f8301126103c7576103c66102a4565b5b81356103d7848260208601610372565b91505092915050565b5f602082840312156103f5576103f461029c565b5b5f82013567ffffffffffffffff811115610412576104116102a0565b5b61041e848285016103b3565b91505092915050565b5f819050919050565b61043981610427565b82525050565b5f6020820190506104525f830184610430565b92915050565b61046181610427565b811461046b575f80fd5b50565b5f8135905061047c81610458565b92915050565b5f602082840312156104975761049661029c565b5b5f6104a48482850161046e565b91505092915050565b5f81519050919050565b5f82825260208201905092915050565b5f5b838110156104e45780820151818401526020810190506104c9565b5f8484015250505050565b5f6104f9826104ad565b61050381856104b7565b93506105138185602086016104c7565b61051c816102ac565b840191505092915050565b5f60408201905061053a5f830185610430565b818103602083015261054c81846104ef565b90509392505050565b5f806040838503121561056b5761056a61029c565b5b5f83013567ffffffffffffffff811115610588576105876102a0565b5b610594858286016103b3565b92505060206105a58582860161046e565b9150509250929050565b7f4e487b71000000000000000000000000000000000000000000000000000000005f52602260045260245ffd5b5f60028204905060018216806105f357607f821691505b602082108103610606576106056105af565b5b50919050565b7f4e487b71000000000000000000000000000000000000000000000000000000005f52601160045260245ffd5b5f61064382610427565b915061064e83610427565b92508282019050808211156106665761066561060c565b5b92915050565b5f819050815f5260205f209050919050565b5f6020601f8301049050919050565b5f82821b905092915050565b5f600883026106c87fffffffffffffffffffffffffffffffffffffffffffffffffffffffffffffffff8261068d565b6106d2868361068d565b95508019841693508086168417925050509392505050565b5f819050919050565b5f61070d61070861070384610427565b6106ea565b610427565b9050919050565b5f819050919050565b610726836106f3565b61073a61073282610714565b848454610699565b825550505050565b5f90565b61074e610742565b61075981848461071d565b505050565b5b8181101561077c576107715f82610746565b60018101905061075f565b5050565b601f8211156107c1576107928161066c565b61079b8461067e565b810160208510156107aa578190505b6107be6107b68561067e565b83018261075e565b50505b505050565b5f82821c905092915050565b5f6107e15f19846008026107c6565b1980831691505092915050565b5f6107f983836107d2565b9150826002028217905092915050565b610812826104ad565b67ffffffffffffffff81111561082b5761082a6102bc565b5b61083582546105dc565b610840828285610780565b5f60209050601f831160018114610871575f841561085f578287015190505b61086985826107ee565b8655506108d0565b601f19841661087f8661066c565b5f5b828110156108a657848901518255600182019150602085019450602081019050610881565b868310156108c357848901516108bf601f8916826107d2565b8355505b6001600288020188555050505b505050505050565b5f81905092915050565b5f6108ec826104ad565b6108f681856108d8565b93506109068185602086016104c7565b80840191505092915050565b5f61091d82846108e2565b91508190509291505056fea2646970667358221220e03df18e10046ee27553d833347667c23836eb6e6070c5fdcf2578fd3d68cb7164736f6c63430008180033",
			"opcodes": "PUSH1 0x80 PUSH1 0x40 MSTORE CALLVALUE DUP1 ISZERO PUSH2 0xF JUMPI PUSH0 DUP1 REVERT JUMPDEST POP PUSH2 0x95E DUP1 PUSH2 0x1D PUSH0 CODECOPY PUSH0 RETURN INVALID PUSH1 0x80 PUSH1 0x40 MSTORE CALLVALUE DUP1 ISZERO PUSH2 0xF JUMPI PUSH0 DUP1 REVERT JUMPDEST POP PUSH1 0x4 CALLDATASIZE LT PUSH2 0x55 JUMPI PUSH0 CALLDATALOAD PUSH1 0xE0 SHR DUP1 PUSH4 0x6C62C2C EQ PUSH2 0x59 JUMPI DUP1 PUSH4 0x2E64CEC1 EQ PUSH2 0x89 JUMPI DUP1 PUSH4 0x2EBCE631 EQ PUSH2 0xA7 JUMPI DUP1 PUSH4 0x6057361D EQ PUSH2 0xD8 JUMPI DUP1 PUSH4 0x6F760F41 EQ PUSH2 0xF4 JUMPI JUMPDEST PUSH0 DUP1 REVERT JUMPDEST PUSH2 0x73 PUSH1 0x4 DUP1 CALLDATASIZE SUB DUP2 ADD SWAP1 PUSH2 0x6E SWAP2 SWAP1 PUSH2 0x3E0 JUMP JUMPDEST PUSH2 0x110 JUMP JUMPDEST PUSH1 0x40 MLOAD PUSH2 0x80 SWAP2 SWAP1 PUSH2 0x43F JUMP JUMPDEST PUSH1 0x40 MLOAD DUP1 SWAP2 SUB SWAP1 RETURN JUMPDEST PUSH2 0x91 PUSH2 0x13D JUMP JUMPDEST PUSH1 0x40 MLOAD PUSH2 0x9E SWAP2 SWAP1 PUSH2 0x43F JUMP JUMPDEST PUSH1 0x40 MLOAD DUP1 SWAP2 SUB SWAP1 RETURN JUMPDEST PUSH2 0xC1 PUSH1 0x4 DUP1 CALLDATASIZE SUB DUP2 ADD SWAP1 PUSH2 0xBC SWAP2 SWAP1 PUSH2 0x482 JUMP JUMPDEST PUSH2 0x145 JUMP JUMPDEST PUSH1 0x40 MLOAD PUSH2 0xCF SWAP3 SWAP2 SWAP1 PUSH2 0x527 JUMP JUMPDEST PUSH1 0x40 MLOAD DUP1 SWAP2 SUB SWAP1 RETURN JUMPDEST PUSH2 0xF2 PUSH1 0x4 DUP1 CALLDATASIZE SUB DUP2 ADD SWAP1 PUSH2 0xED SWAP2 SWAP1 PUSH2 0x482 JUMP JUMPDEST PUSH2 0x1FA JUMP JUMPDEST STOP JUMPDEST PUSH2 0x10E PUSH1 0x4 DUP1 CALLDATASIZE SUB DUP2 ADD SWAP1 PUSH2 0x109 SWAP2 SWAP1 PUSH2 0x555 JUMP JUMPDEST PUSH2 0x20F JUMP JUMPDEST STOP JUMPDEST PUSH1 0x2 DUP2 DUP1 MLOAD PUSH1 0x20 DUP2 ADD DUP3 ADD DUP1 MLOAD DUP5 DUP3 MSTORE PUSH1 0x20 DUP4 ADD PUSH1 0x20 DUP6 ADD KECCAK256 DUP2 DUP4 MSTORE DUP1 SWAP6 POP POP POP POP POP POP PUSH0 SWAP2 POP SWAP1 POP SLOAD DUP2 JUMP JUMPDEST PUSH0 DUP1 SLOAD SWAP1 POP SWAP1 JUMP JUMPDEST PUSH1 0x1 DUP2 DUP2 SLOAD DUP2 LT PUSH2 0x154 JUMPI PUSH0 DUP1 REVERT JUMPDEST SWAP1 PUSH0 MSTORE PUSH1 0x20 PUSH0 KECCAK256 SWAP1 PUSH1 0x2 MUL ADD PUSH0 SWAP2 POP SWAP1 POP DUP1 PUSH0 ADD SLOAD SWAP1 DUP1 PUSH1 0x1 ADD DUP1 SLOAD PUSH2 0x179 SWAP1 PUSH2 0x5DC JUMP JUMPDEST DUP1 PUSH1 0x1F ADD PUSH1 0x20 DUP1 SWAP2 DIV MUL PUSH1 0x20 ADD PUSH1 0x40 MLOAD SWAP1 DUP2 ADD PUSH1 0x40 MSTORE DUP1 SWAP3 SWAP2 SWAP1 DUP2 DUP2 MSTORE PUSH1 0x20 ADD DUP3 DUP1 SLOAD PUSH2 0x1A5 SWAP1 PUSH2 0x5DC JUMP JUMPDEST DUP1 ISZERO PUSH2 0x1F0 JUMPI DUP1 PUSH1 0x1F LT PUSH2 0x1C7 JUMPI PUSH2 0x100 DUP1 DUP4 SLOAD DIV MUL DUP4 MSTORE SWAP2 PUSH1 0x20 ADD SWAP2 PUSH2 0x1F0 JUMP JUMPDEST DUP3 ADD SWAP2 SWAP1 PUSH0 MSTORE PUSH1 0x20 PUSH0 KECCAK256 SWAP1 JUMPDEST DUP2 SLOAD DUP2 MSTORE SWAP1 PUSH1 0x1 ADD SWAP1 PUSH1 0x20 ADD DUP1 DUP4 GT PUSH2 0x1D3 JUMPI DUP3 SWAP1 SUB PUSH1 0x1F AND DUP3 ADD SWAP2 JUMPDEST POP POP POP POP POP SWAP1 POP DUP3 JUMP JUMPDEST PUSH1 0x5 DUP2 PUSH2 0x207 SWAP2 SWAP1 PUSH2 0x639 JUMP JUMPDEST PUSH0 DUP2 SWAP1 SSTORE POP POP JUMP JUMPDEST PUSH1 0x1 PUSH1 0x40 MLOAD DUP1 PUSH1 0x40 ADD PUSH1 0x40 MSTORE DUP1 DUP4 DUP2 MSTORE PUSH1 0x20 ADD DUP5 DUP2 MSTORE POP SWAP1 DUP1 PUSH1 0x1 DUP2 SLOAD ADD DUP1 DUP3 SSTORE DUP1 SWAP2 POP POP PUSH1 0x1 SWAP1 SUB SWAP1 PUSH0 MSTORE PUSH1 0x20 PUSH0 KECCAK256 SWAP1 PUSH1 0x2 MUL ADD PUSH0 SWAP1 SWAP2 SWAP1 SWAP2 SWAP1 SWAP2 POP PUSH0 DUP3 ADD MLOAD DUP2 PUSH0 ADD SSTORE PUSH1 0x20 DUP3 ADD MLOAD DUP2 PUSH1 0x1 ADD SWAP1 DUP2 PUSH2 0x269 SWAP2 SWAP1 PUSH2 0x809 JUMP JUMPDEST POP POP POP DUP1 PUSH1 0x2 DUP4 PUSH1 0x40 MLOAD PUSH2 0x27D SWAP2 SWAP1 PUSH2 0x912 JUMP JUMPDEST SWAP1 DUP2 MSTORE PUSH1 0x20 ADD PUSH1 0x40 MLOAD DUP1 SWAP2 SUB SWAP1 KECCAK256 DUP2 SWAP1 SSTORE POP POP POP JUMP JUMPDEST PUSH0 PUSH1 0x40 MLOAD SWAP1 POP SWAP1 JUMP JUMPDEST PUSH0 DUP1 REVERT JUMPDEST PUSH0 DUP1 REVERT JUMPDEST PUSH0 DUP1 REVERT JUMPDEST PUSH0 DUP1 REVERT JUMPDEST PUSH0 PUSH1 0x1F NOT PUSH1 0x1F DUP4 ADD AND SWAP1 POP SWAP2 SWAP1 POP JUMP JUMPDEST PUSH32 0x4E487B7100000000000000000000000000000000000000000000000000000000 PUSH0 MSTORE PUSH1 0x41 PUSH1 0x4 MSTORE PUSH1 0x24 PUSH0 REVERT JUMPDEST PUSH2 0x2F2 DUP3 PUSH2 0x2AC JUMP JUMPDEST DUP2 ADD DUP2 DUP2 LT PUSH8 0xFFFFFFFFFFFFFFFF DUP3 GT OR ISZERO PUSH2 0x311 JUMPI PUSH2 0x310 PUSH2 0x2BC JUMP JUMPDEST JUMPDEST DUP1 PUSH1 0x40 MSTORE POP POP POP JUMP JUMPDEST PUSH0 PUSH2 0x323 PUSH2 0x293 JUMP JUMPDEST SWAP1 POP PUSH2 0x32F DUP3 DUP3 PUSH2 0x2E9 JUMP JUMPDEST SWAP2 SWAP1 POP JUMP JUMPDEST PUSH0 PUSH8 0xFFFFFFFFFFFFFFFF DUP3 GT ISZERO PUSH2 0x34E JUMPI PUSH2 0x34D PUSH2 0x2BC JUMP JUMPDEST JUMPDEST PUSH2 0x357 DUP3 PUSH2 0x2AC JUMP JUMPDEST SWAP1 POP PUSH1 0x20 DUP2 ADD SWAP1 POP SWAP2 SWAP1 POP JUMP JUMPDEST DUP3 DUP2 DUP4 CALLDATACOPY PUSH0 DUP4 DUP4 ADD MSTORE POP POP POP JUMP JUMPDEST PUSH0 PUSH2 0x384 PUSH2 0x37F DUP5 PUSH2 0x334 JUMP JUMPDEST PUSH2 0x31A JUMP JUMPDEST SWAP1 POP DUP3 DUP2 MSTORE PUSH1 0x20 DUP2 ADD DUP5 DUP5 DUP5 ADD GT ISZERO PUSH2 0x3A0 JUMPI PUSH2 0x39F PUSH2 0x2A8 JUMP JUMPDEST JUMPDEST PUSH2 0x3AB DUP5 DUP3 DUP6 PUSH2 0x364 JUMP JUMPDEST POP SWAP4 SWAP3 POP POP POP JUMP JUMPDEST PUSH0 DUP3 PUSH1 0x1F DUP4 ADD SLT PUSH2 0x3C7 JUMPI PUSH2 0x3C6 PUSH2 0x2A4 JUMP JUMPDEST JUMPDEST DUP2 CALLDATALOAD PUSH2 0x3D7 DUP5 DUP3 PUSH1 0x20 DUP7 ADD PUSH2 0x372 JUMP JUMPDEST SWAP2 POP POP SWAP3 SWAP2 POP POP JUMP JUMPDEST PUSH0 PUSH1 0x20 DUP3 DUP5 SUB SLT ISZERO PUSH2 0x3F5 JUMPI PUSH2 0x3F4 PUSH2 0x29C JUMP JUMPDEST JUMPDEST PUSH0 DUP3 ADD CALLDATALOAD PUSH8 0xFFFFFFFFFFFFFFFF DUP2 GT ISZERO PUSH2 0x412 JUMPI PUSH2 0x411 PUSH2 0x2A0 JUMP JUMPDEST JUMPDEST PUSH2 0x41E DUP5 DUP3 DUP6 ADD PUSH2 0x3B3 JUMP JUMPDEST SWAP2 POP POP SWAP3 SWAP2 POP POP JUMP JUMPDEST PUSH0 DUP2 SWAP1 POP SWAP2 SWAP1 POP JUMP JUMPDEST PUSH2 0x439 DUP2 PUSH2 0x427 JUMP JUMPDEST DUP3 MSTORE POP POP JUMP JUMPDEST PUSH0 PUSH1 0x20 DUP3 ADD SWAP1 POP PUSH2 0x452 PUSH0 DUP4 ADD DUP5 PUSH2 0x430 JUMP JUMPDEST SWAP3 SWAP2 POP POP JUMP JUMPDEST PUSH2 0x461 DUP2 PUSH2 0x427 JUMP JUMPDEST DUP2 EQ PUSH2 0x46B JUMPI PUSH0 DUP1 REVERT JUMPDEST POP JUMP JUMPDEST PUSH0 DUP2 CALLDATALOAD SWAP1 POP PUSH2 0x47C DUP2 PUSH2 0x458 JUMP JUMPDEST SWAP3 SWAP2 POP POP JUMP JUMPDEST PUSH0 PUSH1 0x20 DUP3 DUP5 SUB SLT ISZERO PUSH2 0x497 JUMPI PUSH2 0x496 PUSH2 0x29C JUMP JUMPDEST JUMPDEST PUSH0 PUSH2 0x4A4 DUP5 DUP3 DUP6 ADD PUSH2 0x46E JUMP JUMPDEST SWAP2 POP POP SWAP3 SWAP2 POP POP JUMP JUMPDEST PUSH0 DUP2 MLOAD SWAP1 POP SWAP2 SWAP1 POP JUMP JUMPDEST PUSH0 DUP3 DUP3 MSTORE PUSH1 0x20 DUP3 ADD SWAP1 POP SWAP3 SWAP2 POP POP JUMP JUMPDEST PUSH0 JUMPDEST DUP4 DUP2 LT ISZERO PUSH2 0x4E4 JUMPI DUP1 DUP3 ADD MLOAD DUP2 DUP5 ADD MSTORE PUSH1 0x20 DUP2 ADD SWAP1 POP PUSH2 0x4C9 JUMP JUMPDEST PUSH0 DUP5 DUP5 ADD MSTORE POP POP POP POP JUMP JUMPDEST PUSH0 PUSH2 0x4F9 DUP3 PUSH2 0x4AD JUMP JUMPDEST PUSH2 0x503 DUP2 DUP6 PUSH2 0x4B7 JUMP JUMPDEST SWAP4 POP PUSH2 0x513 DUP2 DUP6 PUSH1 0x20 DUP7 ADD PUSH2 0x4C7 JUMP JUMPDEST PUSH2 0x51C DUP2 PUSH2 0x2AC JUMP JUMPDEST DUP5 ADD SWAP2 POP POP SWAP3 SWAP2 POP POP JUMP JUMPDEST PUSH0 PUSH1 0x40 DUP3 ADD SWAP1 POP PUSH2 0x53A PUSH0 DUP4 ADD DUP6 PUSH2 0x430 JUMP JUMPDEST DUP2 DUP2 SUB PUSH1 0x20 DUP4 ADD MSTORE PUSH2 0x54C DUP2 DUP5 PUSH2 0x4EF JUMP JUMPDEST SWAP1 POP SWAP4 SWAP3 POP POP POP JUMP JUMPDEST PUSH0 DUP1 PUSH1 0x40 DUP4 DUP6 SUB SLT ISZERO PUSH2 0x56B JUMPI PUSH2 0x56A PUSH2 0x29C JUMP JUMPDEST JUMPDEST PUSH0 DUP4 ADD CALLDATALOAD PUSH8 0xFFFFFFFFFFFFFFFF DUP2 GT ISZERO PUSH2 0x588 JUMPI PUSH2 0x587 PUSH2 0x2A0 JUMP JUMPDEST JUMPDEST PUSH2 0x594 DUP6 DUP3 DUP7 ADD PUSH2 0x3B3 JUMP JUMPDEST SWAP3 POP POP PUSH1 0x20 PUSH2 0x5A5 DUP6 DUP3 DUP7 ADD PUSH2 0x46E JUMP JUMPDEST SWAP2 POP POP SWAP3 POP SWAP3 SWAP1 POP JUMP JUMPDEST PUSH32 0x4E487B7100000000000000000000000000000000000000000000000000000000 PUSH0 MSTORE PUSH1 0x22 PUSH1 0x4 MSTORE PUSH1 0x24 PUSH0 REVERT JUMPDEST PUSH0 PUSH1 0x2 DUP3 DIV SWAP1 POP PUSH1 0x1 DUP3 AND DUP1 PUSH2 0x5F3 JUMPI PUSH1 0x7F DUP3 AND SWAP2 POP JUMPDEST PUSH1 0x20 DUP3 LT DUP2 SUB PUSH2 0x606 JUMPI PUSH2 0x605 PUSH2 0x5AF JUMP JUMPDEST JUMPDEST POP SWAP2 SWAP1 POP JUMP JUMPDEST PUSH32 0x4E487B7100000000000000000000000000000000000000000000000000000000 PUSH0 MSTORE PUSH1 0x11 PUSH1 0x4 MSTORE PUSH1 0x24 PUSH0 REVERT JUMPDEST PUSH0 PUSH2 0x643 DUP3 PUSH2 0x427 JUMP JUMPDEST SWAP2 POP PUSH2 0x64E DUP4 PUSH2 0x427 JUMP JUMPDEST SWAP3 POP DUP3 DUP3 ADD SWAP1 POP DUP1 DUP3 GT ISZERO PUSH2 0x666 JUMPI PUSH2 0x665 PUSH2 0x60C JUMP JUMPDEST JUMPDEST SWAP3 SWAP2 POP POP JUMP JUMPDEST PUSH0 DUP2 SWAP1 POP DUP2 PUSH0 MSTORE PUSH1 0x20 PUSH0 KECCAK256 SWAP1 POP SWAP2 SWAP1 POP JUMP JUMPDEST PUSH0 PUSH1 0x20 PUSH1 0x1F DUP4 ADD DIV SWAP1 POP SWAP2 SWAP1 POP JUMP JUMPDEST PUSH0 DUP3 DUP3 SHL SWAP1 POP SWAP3 SWAP2 POP POP JUMP JUMPDEST PUSH0 PUSH1 0x8 DUP4 MUL PUSH2 0x6C8 PUSH32 0xFFFFFFFFFFFFFFFFFFFFFFFFFFFFFFFFFFFFFFFFFFFFFFFFFFFFFFFFFFFFFFFF DUP3 PUSH2 0x68D JUMP JUMPDEST PUSH2 0x6D2 DUP7 DUP4 PUSH2 0x68D JUMP JUMPDEST SWAP6 POP DUP1 NOT DUP5 AND SWAP4 POP DUP1 DUP7 AND DUP5 OR SWAP3 POP POP POP SWAP4 SWAP3 POP POP POP JUMP JUMPDEST PUSH0 DUP2 SWAP1 POP SWAP2 SWAP1 POP JUMP JUMPDEST PUSH0 PUSH2 0x70D PUSH2 0x708 PUSH2 0x703 DUP5 PUSH2 0x427 JUMP JUMPDEST PUSH2 0x6EA JUMP JUMPDEST PUSH2 0x427 JUMP JUMPDEST SWAP1 POP SWAP2 SWAP1 POP JUMP JUMPDEST PUSH0 DUP2 SWAP1 POP SWAP2 SWAP1 POP JUMP JUMPDEST PUSH2 0x726 DUP4 PUSH2 0x6F3 JUMP JUMPDEST PUSH2 0x73A PUSH2 0x732 DUP3 PUSH2 0x714 JUMP JUMPDEST DUP5 DUP5 SLOAD PUSH2 0x699 JUMP JUMPDEST DUP3 SSTORE POP POP POP POP JUMP JUMPDEST PUSH0 SWAP1 JUMP JUMPDEST PUSH2 0x74E PUSH2 0x742 JUMP JUMPDEST PUSH2 0x759 DUP2 DUP5 DUP5 PUSH2 0x71D JUMP JUMPDEST POP POP POP JUMP JUMPDEST JUMPDEST DUP2 DUP2 LT ISZERO PUSH2 0x77C JUMPI PUSH2 0x771 PUSH0 DUP3 PUSH2 0x746 JUMP JUMPDEST PUSH1 0x1 DUP2 ADD SWAP1 POP PUSH2 0x75F JUMP JUMPDEST POP POP JUMP JUMPDEST PUSH1 0x1F DUP3 GT ISZERO PUSH2 0x7C1 JUMPI PUSH2 0x792 DUP2 PUSH2 0x66C JUMP JUMPDEST PUSH2 0x79B DUP5 PUSH2 0x67E JUMP JUMPDEST DUP2 ADD PUSH1 0x20 DUP6 LT ISZERO PUSH2 0x7AA JUMPI DUP2 SWAP1 POP JUMPDEST PUSH2 0x7BE PUSH2 0x7B6 DUP6 PUSH2 0x67E JUMP JUMPDEST DUP4 ADD DUP3 PUSH2 0x75E JUMP JUMPDEST POP POP JUMPDEST POP POP POP JUMP JUMPDEST PUSH0 DUP3 DUP3 SHR SWAP1 POP SWAP3 SWAP2 POP POP JUMP JUMPDEST PUSH0 PUSH2 0x7E1 PUSH0 NOT DUP5 PUSH1 0x8 MUL PUSH2 0x7C6 JUMP JUMPDEST NOT DUP1 DUP4 AND SWAP2 POP POP SWAP3 SWAP2 POP POP JUMP JUMPDEST PUSH0 PUSH2 0x7F9 DUP4 DUP4 PUSH2 0x7D2 JUMP JUMPDEST SWAP2 POP DUP3 PUSH1 0x2 MUL DUP3 OR SWAP1 POP SWAP3 SWAP2 POP POP JUMP JUMPDEST PUSH2 0x812 DUP3 PUSH2 0x4AD JUMP JUMPDEST PUSH8 0xFFFFFFFFFFFFFFFF DUP2 GT ISZERO PUSH2 0x82B JUMPI PUSH2 0x82A PUSH2 0x2BC JUMP JUMPDEST JUMPDEST PUSH2 0x835 DUP3 SLOAD PUSH2 0x5DC JUMP JUMPDEST PUSH2 0x840 DUP3 DUP3 DUP6 PUSH2 0x780 JUMP JUMPDEST PUSH0 PUSH1 0x20 SWAP1 POP PUSH1 0x1F DUP4 GT PUSH1 0x1 DUP2 EQ PUSH2 0x871 JUMPI PUSH0 DUP5 ISZERO PUSH2 0x85F JUMPI DUP3 DUP8 ADD MLOAD SWAP1 POP JUMPDEST PUSH2 0x869 DUP6 DUP3 PUSH2 0x7EE JUMP JUMPDEST DUP7 SSTORE POP PUSH2 0x8D0 JUMP JUMPDEST PUSH1 0x1F NOT DUP5 AND PUSH2 0x87F DUP7 PUSH2 0x66C JUMP JUMPDEST PUSH0 JUMPDEST DUP3 DUP2 LT ISZERO PUSH2 0x8A6 JUMPI DUP5 DUP10 ADD MLOAD DUP3 SSTORE PUSH1 0x1 DUP3 ADD SWAP2 POP PUSH1 0x20 DUP6 ADD SWAP5 POP PUSH1 0x20 DUP2 ADD SWAP1 POP PUSH2 0x881 JUMP JUMPDEST DUP7 DUP4 LT ISZERO PUSH2 0x8C3 JUMPI DUP5 DUP10 ADD MLOAD PUSH2 0x8BF PUSH1 0x1F DUP10 AND DUP3 PUSH2 0x7D2 JUMP JUMPDEST DUP4 SSTORE POP JUMPDEST PUSH1 0x1 PUSH1 0x2 DUP9 MUL ADD DUP9 SSTORE POP POP POP JUMPDEST POP POP POP POP POP POP JUMP JUMPDEST PUSH0 DUP2 SWAP1 POP SWAP3 SWAP2 POP POP JUMP JUMPDEST PUSH0 PUSH2 0x8EC DUP3 PUSH2 0x4AD JUMP JUMPDEST PUSH2 0x8F6 DUP2 DUP6 PUSH2 0x8D8 JUMP JUMPDEST SWAP4 POP PUSH2 0x906 DUP2 DUP6 PUSH1 0x20 DUP7 ADD PUSH2 0x4C7 JUMP JUMPDEST DUP1 DUP5 ADD SWAP2 POP POP SWAP3 SWAP2 POP POP JUMP JUMPDEST PUSH0 PUSH2 0x91D DUP3 DUP5 PUSH2 0x8E2 JUMP JUMPDEST SWAP2 POP DUP2 SWAP1 POP SWAP3 SWAP2 POP POP JUMP INVALID LOG2 PUSH5 0x6970667358 0x22 SLT KECCAK256 0xE0 RETURNDATASIZE CALL DUP15 LT DIV PUSH15 0xE27553D833347667C23836EB6E6070 0xC5 REVERT 0xCF 0x25 PUSH25 0xFD3D68CB7164736F6C63430008180033000000000000000000 "
		},
		"gasEstimates": {
			"creation": {
				"codeDepositCost": "479600",
				"executionCost": "509",
				"totalCost": "480109"
			},
			"external": {
				"addPerson(string,uint256)": "infinite",
				"listOfPeople(uint256)": "infinite",
				"nameToFavNum(string)": "infinite",
				"retrieve()": "2432",
				"store(uint256)": "infinite"
			}
		},
		"methodIdentifiers": {
			"addPerson(string,uint256)": "6f760f41",
			"listOfPeople(uint256)": "2ebce631",
			"nameToFavNum(string)": "06c62c2c",
			"retrieve()": "2e64cec1",
			"store(uint256)": "6057361d"
		}
	},
	"abi": [
		{
			"inputs": [
				{
					"internalType": "string",
					"name": "_name",
					"type": "string"
				},
				{
					"internalType": "uint256",
					"name": "_favNum",
					"type": "uint256"
				}
			],
			"name": "addPerson",
			"outputs": [],
			"stateMutability": "nonpayable",
			"type": "function"
		},
		{
			"inputs": [
				{
					"internalType": "uint256",
					"name": "",
					"type": "uint256"
				}
			],
			"name": "listOfPeople",
			"outputs": [
				{
					"internalType": "uint256",
					"name": "favNm",
					"type": "uint256"
				},
				{
					"internalType": "string",
					"name": "name",
					"type": "string"
				}
			],
			"stateMutability": "view",
			"type": "function"
		},
		{
			"inputs": [
				{
					"internalType": "string",
					"name": "",
					"type": "string"
				}
			],
			"name": "nameToFavNum",
			"outputs": [
				{
					"internalType": "uint256",
					"name": "",
					"type": "uint256"
				}
			],
			"stateMutability": "view",
			"type": "function"
		},
		{
			"inputs": [],
			"name": "retrieve",
			"outputs": [
				{
					"internalType": "uint256",
					"name": "",
					"type": "uint256"
				}
			],
			"stateMutability": "view",
			"type": "function"
		},
		{
			"inputs": [
				{
					"internalType": "uint256",
					"name": "_number",
					"type": "uint256"
				}
			],
			"name": "store",
			"outputs": [],
			"stateMutability": "nonpayable",
			"type": "function"
		}
	]
}